{
  "transactions": [
    {
      "hash": "0x25902021fcf716914e325419efa33f12ae4b7065d859ea2e2a85f9cd872eca96",
      "transactionType": "CALL",
      "contractName": null,
      "contractAddress": "0x3F1c547b21f65e10480dE3ad8E19fAAC46C95034",
      "function": "approve(address,uint256)",
      "arguments": [
        "0xC438a1b3089bf5f0FE8242f0833296cb1cD25773",
        "300000000000000000"
      ],
      "transaction": {
        "type": "0x02",
        "from": "0x3b3c3f31dae1fd6d056f67fb2d0ea2fd3217ad67",
        "to": "0x3f1c547b21f65e10480de3ad8e19faac46c95034",
        "gas": "0x160e4",
        "value": "0x0",
        "data": "0x095ea7b3000000000000000000000000c438a1b3089bf5f0fe8242f0833296cb1cd257730000000000000000000000000000000000000000000000000429d069189e0000",
        "nonce": "0x2",
        "accessList": []
      },
      "additionalContracts": [],
      "isFixedGasLimit": false
    },
    {
      "hash": "0x2a08022dc9b838699f4f461da5504a75b04598783cd16db84af93e947f91496d",
      "transactionType": "CALL",
      "contractName": null,
      "contractAddress": "0xC438a1b3089bf5f0FE8242f0833296cb1cD25773",
      "function": "deposit(uint256,address)",
      "arguments": [
        "300000000000000000",
        "0x3B3C3f31DAe1FD6d056f67fB2D0ea2FD3217AD67"
      ],
      "transaction": {
        "type": "0x02",
        "from": "0x3b3c3f31dae1fd6d056f67fb2d0ea2fd3217ad67",
        "to": "0xc438a1b3089bf5f0fe8242f0833296cb1cd25773",
        "gas": "0x45fa7",
        "value": "0x0",
        "data": "0x6e553f650000000000000000000000000000000000000000000000000429d069189e00000000000000000000000000003b3c3f31dae1fd6d056f67fb2d0ea2fd3217ad67",
        "nonce": "0x3",
        "accessList": []
      },
      "additionalContracts": [],
      "isFixedGasLimit": false
    }
  ],
  "receipts": [
    {
      "transactionHash": "0x25902021fcf716914e325419efa33f12ae4b7065d859ea2e2a85f9cd872eca96",
      "transactionIndex": "0x5",
      "blockHash": "0xe24a83bf095514673d2de23b58bb27b598d6dfaf4c95da369eb523a8e6c3deec",
      "blockNumber": "0x14f5ef",
      "from": "0x3B3C3f31DAe1FD6d056f67fB2D0ea2FD3217AD67",
      "to": "0x3F1c547b21f65e10480dE3ad8E19fAAC46C95034",
      "cumulativeGasUsed": "0x4ea08",
      "gasUsed": "0xff7e",
      "contractAddress": null,
      "logs": [
        {
          "address": "0x3F1c547b21f65e10480dE3ad8E19fAAC46C95034",
          "topics": [
            "0x8c5be1e5ebec7d5bd14f71427d1e84f3dd0314c0f7b2291e5b200ac8c7c3b925",
            "0x0000000000000000000000003b3c3f31dae1fd6d056f67fb2d0ea2fd3217ad67",
            "0x000000000000000000000000c438a1b3089bf5f0fe8242f0833296cb1cd25773"
          ],
          "data": "0x0000000000000000000000000000000000000000000000000429d069189e0000",
          "blockHash": "0xe24a83bf095514673d2de23b58bb27b598d6dfaf4c95da369eb523a8e6c3deec",
          "blockNumber": "0x14f5ef",
          "transactionHash": "0x25902021fcf716914e325419efa33f12ae4b7065d859ea2e2a85f9cd872eca96",
          "transactionIndex": "0x5",
          "logIndex": "0x2",
          "removed": false
        }
      ],
      "status": "0x1",
      "logsBloom": "0x00000000000000000000000000000001000000000000000000000000000000000000000000000000000000000000000000000000000000000000000000200000000080000000000000000000000000000000000000400000000000010000000000000000000000000000000000000000000000000000000000000000000000000000000000000000000000000000000000000000000000100004000000000000020000000000000000000000000000000000000000000000000000000000000000004080400000000000000000000000000000000000000000000000000000000010000000000000000000000000000000000000000000000000000000000000",
      "type": "0x2",
      "effectiveGasPrice": "0x158474720"
    },
    {
      "transactionHash": "0x2a08022dc9b838699f4f461da5504a75b04598783cd16db84af93e947f91496d",
      "transactionIndex": "0x6",
      "blockHash": "0xe24a83bf095514673d2de23b58bb27b598d6dfaf4c95da369eb523a8e6c3deec",
      "blockNumber": "0x14f5ef",
      "from": "0x3B3C3f31DAe1FD6d056f67fB2D0ea2FD3217AD67",
      "to": "0xC438a1b3089bf5f0FE8242f0833296cb1cD25773",
      "cumulativeGasUsed": "0x814a5",
      "gasUsed": "0x32a9d",
      "contractAddress": null,
      "logs": [
        {
          "address": "0x3F1c547b21f65e10480dE3ad8E19fAAC46C95034",
          "topics": [
            "0x8c5be1e5ebec7d5bd14f71427d1e84f3dd0314c0f7b2291e5b200ac8c7c3b925",
            "0x0000000000000000000000003b3c3f31dae1fd6d056f67fb2d0ea2fd3217ad67",
            "0x000000000000000000000000c438a1b3089bf5f0fe8242f0833296cb1cd25773"
          ],
          "data": "0x0000000000000000000000000000000000000000000000000000000000000000",
          "blockHash": "0xe24a83bf095514673d2de23b58bb27b598d6dfaf4c95da369eb523a8e6c3deec",
          "blockNumber": "0x14f5ef",
          "transactionHash": "0x2a08022dc9b838699f4f461da5504a75b04598783cd16db84af93e947f91496d",
          "transactionIndex": "0x6",
          "logIndex": "0x3",
          "removed": false
        },
        {
          "address": "0x3F1c547b21f65e10480dE3ad8E19fAAC46C95034",
          "topics": [
            "0xddf252ad1be2c89b69c2b068fc378daa952ba7f163c4a11628f55a4df523b3ef",
            "0x0000000000000000000000003b3c3f31dae1fd6d056f67fb2d0ea2fd3217ad67",
            "0x000000000000000000000000c438a1b3089bf5f0fe8242f0833296cb1cd25773"
          ],
          "data": "0x0000000000000000000000000000000000000000000000000429d069189e0000",
          "blockHash": "0xe24a83bf095514673d2de23b58bb27b598d6dfaf4c95da369eb523a8e6c3deec",
          "blockNumber": "0x14f5ef",
          "transactionHash": "0x2a08022dc9b838699f4f461da5504a75b04598783cd16db84af93e947f91496d",
          "transactionIndex": "0x6",
          "logIndex": "0x4",
          "removed": false
        },
        {
          "address": "0x3F1c547b21f65e10480dE3ad8E19fAAC46C95034",
          "topics": [
            "0x9d9c909296d9c674451c0c24f02cb64981eb3b727f99865939192f880a755dcb",
            "0x0000000000000000000000003b3c3f31dae1fd6d056f67fb2d0ea2fd3217ad67",
            "0x000000000000000000000000c438a1b3089bf5f0fe8242f0833296cb1cd25773"
          ],
          "data": "0x00000000000000000000000000000000000000000000000004201ba335bea946",
          "blockHash": "0xe24a83bf095514673d2de23b58bb27b598d6dfaf4c95da369eb523a8e6c3deec",
          "blockNumber": "0x14f5ef",
          "transactionHash": "0x2a08022dc9b838699f4f461da5504a75b04598783cd16db84af93e947f91496d",
          "transactionIndex": "0x6",
          "logIndex": "0x5",
          "removed": false
        },
        {
          "address": "0xC438a1b3089bf5f0FE8242f0833296cb1cD25773",
          "topics": [
            "0xddf252ad1be2c89b69c2b068fc378daa952ba7f163c4a11628f55a4df523b3ef",
            "0x0000000000000000000000000000000000000000000000000000000000000000",
            "0x0000000000000000000000003b3c3f31dae1fd6d056f67fb2d0ea2fd3217ad67"
          ],
          "data": "0x0000000000000000000000000000000000000000000000000429d069189e0000",
          "blockHash": "0xe24a83bf095514673d2de23b58bb27b598d6dfaf4c95da369eb523a8e6c3deec",
          "blockNumber": "0x14f5ef",
          "transactionHash": "0x2a08022dc9b838699f4f461da5504a75b04598783cd16db84af93e947f91496d",
          "transactionIndex": "0x6",
          "logIndex": "0x6",
          "removed": false
        },
        {
          "address": "0xC438a1b3089bf5f0FE8242f0833296cb1cD25773",
          "topics": [
            "0xdcbc1c05240f31ff3ad067ef1ee35ce4997762752e3a095284754544f4c709d7",
            "0x0000000000000000000000003b3c3f31dae1fd6d056f67fb2d0ea2fd3217ad67",
            "0x0000000000000000000000003b3c3f31dae1fd6d056f67fb2d0ea2fd3217ad67"
          ],
          "data": "0x0000000000000000000000000000000000000000000000000429d069189e00000000000000000000000000000000000000000000000000000429d069189e0000",
          "blockHash": "0xe24a83bf095514673d2de23b58bb27b598d6dfaf4c95da369eb523a8e6c3deec",
          "blockNumber": "0x14f5ef",
          "transactionHash": "0x2a08022dc9b838699f4f461da5504a75b04598783cd16db84af93e947f91496d",
          "transactionIndex": "0x6",
          "logIndex": "0x7",
          "removed": false
        }
      ],
      "status": "0x1",
      "logsBloom": "0x00000000080000000000000000000001000000000000000000000000000000000000000000000000000000000000000000000000000000000000000000200000000280400000000000000008000000000000000000400000000000010000000000000000020000000000008000000800000000000004000000000010000000000000000000000000000000000000000000000000000000900004000000000000020000000000000000000000000000000000000000000000000000000000000000004082400000000000000000000000000000000008000000000000000020000010000000000000000020000000000000000000002000000000000000000000",
      "type": "0x2",
      "effectiveGasPrice": "0x158474720"
    }
  ],
  "libraries": [],
  "pending": [],
  "returns": {},
  "timestamp": 1713480224,
  "chain": 17000,
  "commit": "4726e8d"
}